{
  "contractName": "VPF",
  "abi": [
    {
      "anonymous": false,
      "inputs": [
        {
          "indexed": false,
          "internalType": "uint256",
          "name": "id",
          "type": "uint256"
        },
        {
          "indexed": false,
          "internalType": "string",
          "name": "status",
          "type": "string"
        },
        {
          "indexed": false,
          "internalType": "string",
          "name": "pertcentage",
          "type": "string"
        },
        {
          "indexed": false,
          "internalType": "string",
          "name": "ethAmt",
          "type": "string"
        },
        {
          "indexed": false,
          "internalType": "uint8",
          "name": "trend",
          "type": "uint8"
        },
        {
          "indexed": false,
          "internalType": "uint8",
          "name": "value",
          "type": "uint8"
        }
      ],
      "name": "VPFcardCreated",
      "type": "event"
    },
    {
      "constant": true,
      "inputs": [],
      "name": "name",
      "outputs": [
        {
          "internalType": "string",
          "name": "",
          "type": "string"
        }
      ],
      "payable": false,
      "stateMutability": "view",
      "type": "function"
    },
    {
      "constant": true,
      "inputs": [],
      "name": "vpfCount",
      "outputs": [
        {
          "internalType": "uint256",
          "name": "",
          "type": "uint256"
        }
      ],
      "payable": false,
      "stateMutability": "view",
      "type": "function"
    },
    {
      "constant": true,
      "inputs": [
        {
          "internalType": "uint256",
          "name": "",
          "type": "uint256"
        }
      ],
      "name": "vpfs",
      "outputs": [
        {
          "internalType": "uint256",
          "name": "id",
          "type": "uint256"
        },
        {
          "internalType": "string",
          "name": "status",
          "type": "string"
        },
        {
          "internalType": "string",
          "name": "pertcentage",
          "type": "string"
        },
        {
          "internalType": "string",
          "name": "ethAmt",
          "type": "string"
        },
        {
          "internalType": "uint8",
          "name": "trend",
          "type": "uint8"
        },
        {
          "internalType": "uint8",
          "name": "value",
          "type": "uint8"
        }
      ],
      "payable": false,
      "stateMutability": "view",
      "type": "function"
    },
    {
      "constant": false,
      "inputs": [],
      "name": "createVPF",
      "outputs": [],
      "payable": false,
      "stateMutability": "nonpayable",
      "type": "function"
    }
  ],
  "bytecode": "0x60806040526040518060400160405280600381526020017f56504600000000000000000000000000000000000000000000000000000000008152506000908051906020019061004f929190610067565b50600060015534801561006157600080fd5b5061010c565b828054600181600116156101000203166002900490600052602060002090601f016020900481019282601f106100a857805160ff19168380011785556100d6565b828001600101855582156100d6579182015b828111156100d55782518255916020019190600101906100ba565b5b5090506100e391906100e7565b5090565b61010991905b808211156101055760008160009055506001016100ed565b5090565b90565b6108d98061011b6000396000f3fe608060405234801561001057600080fd5b506004361061004c5760003560e01c806306fdde0314610051578063076f36b5146100d45780632d00a860146100f2578063842ea87914610292575b600080fd5b61005961029c565b6040518080602001828103825283818151815260200191508051906020019080838360005b8381101561009957808201518184015260208101905061007e565b50505050905090810190601f1680156100c65780820380516001836020036101000a031916815260200191505b509250505060405180910390f35b6100dc61033a565b6040518082815260200191505060405180910390f35b61011e6004803603602081101561010857600080fd5b8101908080359060200190929190505050610340565b604051808781526020018060200180602001806020018660ff1660ff1681526020018560ff1660ff168152602001848103845289818151815260200191508051906020019080838360005b83811015610184578082015181840152602081019050610169565b50505050905090810190601f1680156101b15780820380516001836020036101000a031916815260200191505b50848103835288818151815260200191508051906020019080838360005b838110156101ea5780820151818401526020810190506101cf565b50505050905090810190601f1680156102175780820380516001836020036101000a031916815260200191505b50848103825287818151815260200191508051906020019080838360005b83811015610250578082015181840152602081019050610235565b50505050905090810190601f16801561027d5780820380516001836020036101000a031916815260200191505b50995050505050505050505060405180910390f35b61029a61055e565b005b60008054600181600116156101000203166002900480601f0160208091040260200160405190810160405280929190818152602001828054600181600116156101000203166002900480156103325780601f1061030757610100808354040283529160200191610332565b820191906000526020600020905b81548152906001019060200180831161031557829003601f168201915b505050505081565b60015481565b6002602052806000526040600020600091509050806000015490806001018054600181600116156101000203166002900480601f0160208091040260200160405190810160405280929190818152602001828054600181600116156101000203166002900480156103f25780601f106103c7576101008083540402835291602001916103f2565b820191906000526020600020905b8154815290600101906020018083116103d557829003601f168201915b505050505090806002018054600181600116156101000203166002900480601f0160208091040260200160405190810160405280929190818152602001828054600181600116156101000203166002900480156104905780601f1061046557610100808354040283529160200191610490565b820191906000526020600020905b81548152906001019060200180831161047357829003601f168201915b505050505090806003018054600181600116156101000203166002900480601f01602080910402602001604051908101604052809291908181526020018280546001816001161561010002031660029004801561052e5780601f106105035761010080835404028352916020019161052e565b820191906000526020600020905b81548152906001019060200180831161051157829003601f168201915b5050505050908060040160009054906101000a900460ff16908060040160019054906101000a900460ff16905086565b6040518060c0016040528060015481526020016040518060400160405280601181526020017f4f7574636f6d6520696e2036682034316d00000000000000000000000000000081525081526020016040518060400160405280600481526020017f323020250000000000000000000000000000000000000000000000000000000081525081526020016040518060400160405280600b81526020017f242033342c3334362e30300000000000000000000000000000000000000000008152508152602001600160ff168152602001600360ff1681525060026000600154815260200190815260200160002060008201518160000155602082015181600101908051906020019061066f9291906107ff565b50604082015181600201908051906020019061068c9291906107ff565b5060608201518160030190805190602001906106a99291906107ff565b5060808201518160040160006101000a81548160ff021916908360ff16021790555060a08201518160040160016101000a81548160ff021916908360ff1602179055509050506001600081548092919060010191905055507f1177ee8f1382d4809e7132a5c52eedf15cee13386e3ef1a211523775bfaf367960015460016003604051808481526020018060200180602001806020018660ff1681526020018560ff168152602001848103845260118152602001807f4f7574636f6d6520696e2036682034316d000000000000000000000000000000815250602001848103835260048152602001807f32302025000000000000000000000000000000000000000000000000000000008152506020018481038252600b8152602001807f242033342c3334362e3030000000000000000000000000000000000000000000815250602001965050505050505060405180910390a1565b828054600181600116156101000203166002900490600052602060002090601f016020900481019282601f1061084057805160ff191683800117855561086e565b8280016001018555821561086e579182015b8281111561086d578251825591602001919060010190610852565b5b50905061087b919061087f565b5090565b6108a191905b8082111561089d576000816000905550600101610885565b5090565b9056fea265627a7a723158204336e64fa8eef758dc9448a535ab6452464775fa7b42a4dee2452e9f1362b6c664736f6c63430005100032",
  "source": "pragma solidity ^0.5.0;\n\ncontract VPF {\n  string public name = 'VPF';\n  uint256 public vpfCount = 0;\n  mapping(uint256 => VPFcard) public vpfs;\n\n  struct VPFcard {\n    uint256 id;\n    string status;\n    string pertcentage;\n    string ethAmt;\n    uint8 trend;\n    uint8 value;\n  }\n\n  event VPFcardCreated(\n    uint256 id,\n    string status,\n    string pertcentage,\n    string ethAmt,\n    uint8 trend,\n    uint8 value\n  );\n\n  function createVPF() public {\n    vpfs[vpfCount] = VPFcard(vpfCount,'Outcome in 6h 41m','20 %','$ 34,346.00',1,3);\n    vpfCount++;\n    emit VPFcardCreated(vpfCount,'Outcome in 6h 41m','20 %','$ 34,346.00',1,3);\n  }\n}\n",
  "sourcePath": "/home/charlie/Documents/Interview/CloseCross/test/dashboard/src/contracts/VPF.sol",
  "compiler": {
    "name": "solc",
    "version": "0.5.16+commit.9c3226ce.Emscripten.clang"
  },
  "schemaVersion": "3.3.3",
  "updatedAt": "2021-01-03T18:29:42.408Z",
  "networkType": "ethereum",
  "devdoc": {
    "methods": {}
  },
  "userdoc": {
    "methods": {}
  }
}